:100000000C942A001895000018950000189500001F
:10001000189500001895000018950000189500002C
:10002000189500001895000018950000189500001C
:10003000189500001895000018950000189500000C
:1000400018950000189500001895000018950000FC
:10005000189500008FE58DBFC0E4E8E24E2E84E0E5
:100060008EBFD4E0F4E05F2EEEEFF3E0A0E6B0E068
:1000700088278D933197E9F70E945101662486E025
:1000800086B980E487B9379AB89AB99A8B9A8C9ACC
:100090008CE00E949F010E9436018FE713E00E94CE
:1000A0004501E8E7F7E00E942F018FEB14E00E9482
:1000B0004501E6E8F7E00E942F01E2E0F0E00E944F
:1000C00048010E9436018FE716E00E944501E2E9EF
:1000D000F7E00E942F018FEB15E00E944501E8E94F
:1000E000F7E00E942F01E2E0F0E00E9448010E9448
:1000F000360180E4806487B90E94BE02A0E6B0E0C9
:100100008D939C93ECE6F7E00E949103E0E6F0E02B
:10011000D190E080FF2400270E94EB020E94370369
:10012000EDE0F0E0A2E6B0E00E94B0038FE712E05D
:100130000E944501E2EAF7E00E942F018FE719E0F3
:100140000E944501A0E1B4E0E2E6F0E00E94C702AF
:100150000E94DB010E9427018FE71EE00E944501FB
:10016000EAEAF7E00E942F0188EC90E00E94CC01BF
:10017000E2E6F0E00E94C702E0E7F7E00E949103A8
:100180000E949A0380E010F009F081E08F93E2E68C
:10019000F0E00E94C702E4E7F7E00E9491030E94AA
:1001A0009A0381E008F080E09F918923882311F46D
:1001B0000C94E0000E943601C198C09893989498DE
:1001C000E2E6F0E00E94C702E4E7F7E00E94910354
:1001D0000E949A0318F011F00C94F0000C94F200B5
:1001E0000E940501E2E6F0E00E94C702E0E7F7E0C6
:1001F0000E9491030E949A0310F00C9401010E9446
:1002000016010C947900F894FFCF8FEB13E00E9455
:100210004501EEEAF7E00E942F01E1E0F0E00E94E4
:100220004801C19AC098949A939808958FEB13E06F
:100230000E944501ECEBF7E00E942F01E1E0F0E0C5
:100240000E944801C198C09A9498939A0895A0E199
:10025000B4E08D91882311F06CD0FBCF08950E94FB
:100260008D03802D11F065D0FACF089581E067D01D
:1002700015D080E864C08FE7213039F08FEB223051
:1002800021F08FE8233009F08FEC810F0C949F014F
:1002900088EE93E081D03197D9F7089583E09927CC
:1002A0007BC08AEF90E00E94CC01A09AA19AA29A0A
:1002B000A39AA49AA59AAD9885E090E00E94CC01FB
:1002C000AC98A898A998AA9AAB9AAC9AEF93FF9386
:1002D000E4ECF0E00E94C001FF91EF91AC9859D09E
:1002E000AC9AEF93FF93E4ECF0E00E94C001FF9121
:1002F000EF91AC984ED0AC9AEF93FF93E4ECF0E022
:100300000E94C001FF91EF91AC9843D0AB98AC9A9A
:10031000EF93FF93E4ECF0E00E94C001FF91EF91B6
:10032000AC9837D088E20BD08EE009D086E007D0B9
:100330000895AD9A829505D004D02BD00895AD983C
:10034000F9CF859510F4AB9A01C0AB98859510F460
:10035000AA9A01C0AA98859510F4A99A01C0A998F3
:10036000859510F4A89A01C0A898AC9AEF93FF93D2
:10037000E4ECF0E00E94C001FF91EF91AC98089589
:100380003197F1F70895689462F80895E89462F857
:10039000089581E090E000C0EF93FF93EE27E82BF3
:1003A000E92B31F0E0EDF7E03197F1F70197D1F764
:1003B000FF91EF9108958DE207FD8D938F2D881F9A
:1003C000802F881F8F57082F6894F7F8802F87FF9A
:1003D00015C080958395082F80E38D938EE28D93D1
:1003E000802F815228F080E38D9399279C93089564
:1003F00044270A95802F09F196D01FC0805230F013
:100400009EE49D9381E48D939D93EFCF4427DF92EB
:10041000EF92FF920F938FE1801B11F0082F83D092
:1004200089D09EE29D930F91FF90EF90DF9044273B
:100430000395003209F4D7CF2BD03F93E6ECF4E0DC
:1004400038E12F2D1E2D0D2DFF24EE24DD24442711
:10045000000F111F221FA8F42F923F920E948D03BC
:10046000102C0E948D03202C0E948D03302C0E94A2
:100470008D033197410DD21CE31CF01C3F902F904F
:1004800001C0339631963A9519F73F9107D0AFCF17
:10049000DD0CEE1CFF1C0A95D9F70895002719E022
:1004A00058D08F93802B11F0039501C08F911A952E
:1004B000B9F7802F882309F496CF8F91805D8D93B3
:1004C0000A95D9F792CF0065CD1D80B2E60E40594E
:1004D0007307A0ACB90350D6DC01286BEE0094354D
:1004E0007700CA9A3B0065CD1D00B2E60E00597335
:1004F0000700ACB90300D6DC01006BEE00003577D5
:1005000000009A3B0000CD1D0000E60E00007307BE
:100510000000B9030000DC010000EE0000007700DD
:1005200000003B000000F694E794D79447950A95A5
:10053000D1F7089500270DD08F9303958F2D8E2925
:100540008D29842BC1F78F91805D8D930A95D9F702
:100550004CCF1F930F93002710E2440FDD1CEE1CBD
:10056000FF1C001F802F9AE0890B10F0082F439585
:100570001A9599F7802F0F911F910895369A369901
:10058000FECF369A3699FECF84B195B10895D190B9
:10059000E190F19001910895219131914191519112
:1005A0000895102F90E8FF0C001F0927990FF7946A
:1005B0001078652F90E8440F551F5927990F4795DC
:1005C000607800380895FF0C90E89027110F9795F8
:1005D000F794092F0895102FBD2CDE2CEF2CF02E50
:1005E00011234AF4B094D094E094F0949FEFB91A98
:1005F000D90AE90AF90A0EE1FF2039F4FE2CED2CA4
:10060000DB2CBB240850C2F766C032F00A95BB0C45
:10061000DD1CEE1CFF1CF9CF01D0D5CFB7FE08952D
:1006200090E8B91611F4D0FE08959FEFD91AE90A9F
:10063000F90A09F403950895502F2D2D3E2D4F2DC5
:10064000612F08952DEC3CEC4CEC5DE366270FC068
:100650009EDFF2DFDD24EE2490E8F92E0FE307C0E1
:100660009BDF05C02227332740E251E4662755234C
:1006700051F1002381F195DF71F116270058505890
:100680000894050B18F407FD03C025C007FD23C01F
:10069000469537952795F694E794D79422D0FF2076
:1006A0002AF0DD0CEE1CFF1C015073F09D2D969579
:1006B00048F0DD203AF4EE202AF491E0D90E992793
:1006C000E91EF91E80CF07C09FE7092FF92A9FEF87
:1006D000D92EE92E0895DD24EE24FF2400271127CA
:1006E00008959F929924AA24BB2488E1D216E30698
:1006F000F40628F0D21AE30AF40A089401C0889498
:10070000991CAA1CBB1CDD0CEE1CFF1C8A9571F702
:10071000D92CEA2CFB2C9F900895C8953196002087
:100720000895FBDF202DF9DF302DF7DF402DF5DFB9
:10073000502D089507FB00680EF40F7757FB5068A3
:100740000EF45F7707FD02C057FF05C0D216E3061F
:10075000F406050708952D153E054F055007089529
:1007600094E081918D939A95E1F70895A470FD3FEF
:100770000000F0410000204254656D7065726174A4
:100780007572655F0000436F6E74726F6C6C65729A
:1007900000007573696E670041546D65676131369D
:1007A000000054656D70203D200027632000436FDA
:1007B0006F6C6572206973204F4E0000486561744C
:0A07C0006572206973204F4E00009F
:00000001FF
